{
  "_format": "hh-sol-artifact-1",
  "contractName": "Voucher",
  "sourceName": "smart_contract/contracts/Voucher.sol",
  "abi": [
    {
      "inputs": [],
      "stateMutability": "nonpayable",
      "type": "constructor"
    },
    {
      "inputs": [],
      "name": "NotFoundError",
      "type": "error"
    },
    {
      "anonymous": false,
      "inputs": [
        {
          "indexed": true,
          "internalType": "bytes32",
          "name": "id",
          "type": "bytes32"
        }
      ],
      "name": "ChainlinkCancelled",
      "type": "event"
    },
    {
      "anonymous": false,
      "inputs": [
        {
          "indexed": true,
          "internalType": "bytes32",
          "name": "id",
          "type": "bytes32"
        }
      ],
      "name": "ChainlinkFulfilled",
      "type": "event"
    },
    {
      "anonymous": false,
      "inputs": [
        {
          "indexed": true,
          "internalType": "bytes32",
          "name": "id",
          "type": "bytes32"
        }
      ],
      "name": "ChainlinkRequested",
      "type": "event"
    },
    {
      "anonymous": false,
      "inputs": [
        {
          "indexed": true,
          "internalType": "address",
          "name": "from",
          "type": "address"
        },
        {
          "indexed": true,
          "internalType": "address",
          "name": "to",
          "type": "address"
        }
      ],
      "name": "OwnershipTransferRequested",
      "type": "event"
    },
    {
      "anonymous": false,
      "inputs": [
        {
          "indexed": true,
          "internalType": "address",
          "name": "from",
          "type": "address"
        },
        {
          "indexed": true,
          "internalType": "address",
          "name": "to",
          "type": "address"
        }
      ],
      "name": "OwnershipTransferred",
      "type": "event"
    },
    {
      "anonymous": false,
      "inputs": [
        {
          "indexed": true,
          "internalType": "bytes32",
          "name": "requestId",
          "type": "bytes32"
        },
        {
          "indexed": false,
          "internalType": "uint256",
          "name": "volume",
          "type": "uint256"
        }
      ],
      "name": "RequestVolume",
      "type": "event"
    },
    {
      "inputs": [],
      "name": "acceptOwnership",
      "outputs": [],
      "stateMutability": "nonpayable",
      "type": "function"
    },
    {
      "inputs": [
        {
          "internalType": "string",
          "name": "_id",
          "type": "string"
        },
        {
          "internalType": "string",
          "name": "_hash",
          "type": "string"
        },
        {
          "internalType": "uint256",
          "name": "_expire_date",
          "type": "uint256"
        },
        {
          "internalType": "contract IERC20",
          "name": "_token_contract",
          "type": "address"
        },
        {
          "internalType": "uint256",
          "name": "_amount",
          "type": "uint256"
        },
        {
          "internalType": "string",
          "name": "_email",
          "type": "string"
        }
      ],
      "name": "addTokenVoucher",
      "outputs": [],
      "stateMutability": "payable",
      "type": "function"
    },
    {
      "inputs": [
        {
          "internalType": "string",
          "name": "_id",
          "type": "string"
        },
        {
          "internalType": "string",
          "name": "_hash",
          "type": "string"
        },
        {
          "internalType": "uint256",
          "name": "_expire_date",
          "type": "uint256"
        },
        {
          "internalType": "string",
          "name": "_email",
          "type": "string"
        }
      ],
      "name": "addVoucher",
      "outputs": [
        {
          "internalType": "bytes32",
          "name": "requestId",
          "type": "bytes32"
        }
      ],
      "stateMutability": "payable",
      "type": "function"
    },
    {
      "inputs": [
        {
          "internalType": "uint256",
          "name": "",
          "type": "uint256"
        }
      ],
      "name": "allVouchers",
      "outputs": [
        {
          "internalType": "string",
          "name": "id",
          "type": "string"
        },
        {
          "internalType": "address",
          "name": "owner",
          "type": "address"
        },
        {
          "internalType": "string",
          "name": "hash",
          "type": "string"
        },
        {
          "internalType": "uint256",
          "name": "amount",
          "type": "uint256"
        },
        {
          "internalType": "address",
          "name": "used_by",
          "type": "address"
        },
        {
          "internalType": "uint256",
          "name": "paid_amount",
          "type": "uint256"
        },
        {
          "internalType": "uint256",
          "name": "created_date",
          "type": "uint256"
        },
        {
          "internalType": "uint256",
          "name": "expire_date",
          "type": "uint256"
        },
        {
          "internalType": "contract IERC20",
          "name": "token_contract",
          "type": "address"
        },
        {
          "internalType": "string",
          "name": "_email",
          "type": "string"
        }
      ],
      "stateMutability": "view",
      "type": "function"
    },
    {
      "inputs": [],
      "name": "checkAndRemoveExpired",
      "outputs": [],
      "stateMutability": "nonpayable",
      "type": "function"
    },
    {
      "inputs": [
        {
          "internalType": "string",
          "name": "_id",
          "type": "string"
        },
        {
          "internalType": "string",
          "name": "_hash",
          "type": "string"
        }
      ],
      "name": "claim",
      "outputs": [],
      "stateMutability": "nonpayable",
      "type": "function"
    },
    {
      "inputs": [
        {
          "internalType": "string",
          "name": "_id",
          "type": "string"
        }
      ],
      "name": "deleteVoucher",
      "outputs": [],
      "stateMutability": "nonpayable",
      "type": "function"
    },
    {
      "inputs": [
        {
          "internalType": "bytes32",
          "name": "_requestId",
          "type": "bytes32"
        },
        {
          "internalType": "uint256",
          "name": "_volume",
          "type": "uint256"
        }
      ],
      "name": "fulfill",
      "outputs": [],
      "stateMutability": "nonpayable",
      "type": "function"
    },
    {
      "inputs": [],
      "name": "getWalletVouchers",
      "outputs": [
        {
          "components": [
            {
              "internalType": "string",
              "name": "id",
              "type": "string"
            },
            {
              "internalType": "address",
              "name": "owner",
              "type": "address"
            },
            {
              "internalType": "string",
              "name": "hash",
              "type": "string"
            },
            {
              "internalType": "uint256",
              "name": "amount",
              "type": "uint256"
            },
            {
              "internalType": "address",
              "name": "used_by",
              "type": "address"
            },
            {
              "internalType": "uint256",
              "name": "paid_amount",
              "type": "uint256"
            },
            {
              "internalType": "uint256",
              "name": "created_date",
              "type": "uint256"
            },
            {
              "internalType": "uint256",
              "name": "expire_date",
              "type": "uint256"
            },
            {
              "internalType": "contract IERC20",
              "name": "token_contract",
              "type": "address"
            },
            {
              "internalType": "string",
              "name": "_email",
              "type": "string"
            }
          ],
          "internalType": "struct Voucher.VouchersStruct[]",
          "name": "",
          "type": "tuple[]"
        }
      ],
      "stateMutability": "view",
      "type": "function"
    },
    {
      "inputs": [],
      "name": "owner",
      "outputs": [
        {
          "internalType": "address",
          "name": "",
          "type": "address"
        }
      ],
      "stateMutability": "view",
      "type": "function"
    },
    {
      "inputs": [
        {
          "internalType": "address",
          "name": "to",
          "type": "address"
        }
      ],
      "name": "transferOwnership",
      "outputs": [],
      "stateMutability": "nonpayable",
      "type": "function"
    },
    {
      "inputs": [
        {
          "internalType": "address",
          "name": "",
          "type": "address"
        },
        {
          "internalType": "uint256",
          "name": "",
          "type": "uint256"
        }
      ],
      "name": "userVouchers",
      "outputs": [
        {
          "internalType": "string",
          "name": "id",
          "type": "string"
        },
        {
          "internalType": "address",
          "name": "owner",
          "type": "address"
        },
        {
          "internalType": "string",
          "name": "hash",
          "type": "string"
        },
        {
          "internalType": "uint256",
          "name": "amount",
          "type": "uint256"
        },
        {
          "internalType": "address",
          "name": "used_by",
          "type": "address"
        },
        {
          "internalType": "uint256",
          "name": "paid_amount",
          "type": "uint256"
        },
        {
          "internalType": "uint256",
          "name": "created_date",
          "type": "uint256"
        },
        {
          "internalType": "uint256",
          "name": "expire_date",
          "type": "uint256"
        },
        {
          "internalType": "contract IERC20",
          "name": "token_contract",
          "type": "address"
        },
        {
          "internalType": "string",
          "name": "_email",
          "type": "string"
        }
      ],
      "stateMutability": "view",
      "type": "function"
    },
    {
      "inputs": [],
      "name": "volume",
      "outputs": [
        {
          "internalType": "uint256",
          "name": "",
          "type": "uint256"
        }
      ],
      "stateMutability": "view",
      "type": "function"
    },
    {
      "inputs": [
        {
          "internalType": "string",
          "name": "_id",
          "type": "string"
        }
      ],
      "name": "voucherById",
      "outputs": [
        {
          "components": [
            {
              "internalType": "string",
              "name": "id",
              "type": "string"
            },
            {
              "internalType": "address",
              "name": "owner",
              "type": "address"
            },
            {
              "internalType": "string",
              "name": "hash",
              "type": "string"
            },
            {
              "internalType": "uint256",
              "name": "amount",
              "type": "uint256"
            },
            {
              "internalType": "address",
              "name": "used_by",
              "type": "address"
            },
            {
              "internalType": "uint256",
              "name": "paid_amount",
              "type": "uint256"
            },
            {
              "internalType": "uint256",
              "name": "created_date",
              "type": "uint256"
            },
            {
              "internalType": "uint256",
              "name": "expire_date",
              "type": "uint256"
            },
            {
              "internalType": "contract IERC20",
              "name": "token_contract",
              "type": "address"
            },
            {
              "internalType": "string",
              "name": "_email",
              "type": "string"
            }
          ],
          "internalType": "struct Voucher.VouchersStruct",
          "name": "",
          "type": "tuple"
        }
      ],
      "stateMutability": "view",
      "type": "function"
    },
    {
      "inputs": [],
      "name": "withdrawLink",
      "outputs": [],
      "stateMutability": "nonpayable",
      "type": "function"
    }
  ],
  "bytecode": "0x608060405260016004553480156200001657600080fd5b50338060008073ffffffffffffffffffffffffffffffffffffffff168273ffffffffffffffffffffffffffffffffffffffff1614156200008d576040517f08c379a00000000000000000000000000000000000000000000000000000000081526004016200008490620003d5565b60405180910390fd5b81600660006101000a81548173ffffffffffffffffffffffffffffffffffffffff021916908373ffffffffffffffffffffffffffffffffffffffff160217905550600073ffffffffffffffffffffffffffffffffffffffff168173ffffffffffffffffffffffffffffffffffffffff161462000115576200011481620001ba60201b60201c565b5b5050506200013d73326c977e6efc84e512bb9c30f76e30c160ed06fb620002ec60201b60201c565b6200016273cc79157eb46f5624204f47ab42b3906caa40eab76200033060201b60201c565b7f6361393833363663633733313439353762386330313263373266303561656562600981905550600a670de0b6b3a76400006001620001a2919062000430565b620001ae9190620004c0565b600a819055506200056a565b3373ffffffffffffffffffffffffffffffffffffffff168173ffffffffffffffffffffffffffffffffffffffff1614156200022c576040517f08c379a0000000000000000000000000000000000000000000000000000000008152600401620002239062000548565b60405180910390fd5b80600760006101000a81548173ffffffffffffffffffffffffffffffffffffffff021916908373ffffffffffffffffffffffffffffffffffffffff1602179055508073ffffffffffffffffffffffffffffffffffffffff16600660009054906101000a900473ffffffffffffffffffffffffffffffffffffffff1673ffffffffffffffffffffffffffffffffffffffff167fed8889f560326eb138920d842192f0eb3dd22b4f139c87a2c57538e05bae127860405160405180910390a350565b80600260006101000a81548173ffffffffffffffffffffffffffffffffffffffff021916908373ffffffffffffffffffffffffffffffffffffffff16021790555050565b80600360006101000a81548173ffffffffffffffffffffffffffffffffffffffff021916908373ffffffffffffffffffffffffffffffffffffffff16021790555050565b600082825260208201905092915050565b7f43616e6e6f7420736574206f776e657220746f207a65726f0000000000000000600082015250565b6000620003bd60188362000374565b9150620003ca8262000385565b602082019050919050565b60006020820190508181036000830152620003f081620003ae565b9050919050565b6000819050919050565b7f4e487b7100000000000000000000000000000000000000000000000000000000600052601160045260246000fd5b60006200043d82620003f7565b91506200044a83620003f7565b9250817fffffffffffffffffffffffffffffffffffffffffffffffffffffffffffffffff048311821515161562000486576200048562000401565b5b828202905092915050565b7f4e487b7100000000000000000000000000000000000000000000000000000000600052601260045260246000fd5b6000620004cd82620003f7565b9150620004da83620003f7565b925082620004ed57620004ec62000491565b5b828204905092915050565b7f43616e6e6f74207472616e7366657220746f2073656c66000000000000000000600082015250565b60006200053060178362000374565b91506200053d82620004f8565b602082019050919050565b60006020820190508181036000830152620005638162000521565b9050919050565b6187a0806200057a6000396000f3fe6080604052600436106100e85760003560e01c80638da5cb5b1161008a578063c618a1e411610059578063c618a1e4146102a9578063cb6ab5d8146102d4578063f2fde38b146102fd578063f91ce77e14610326576100e8565b80638da5cb5b146102135780638dc654a21461023e578063b69338a814610255578063c43538ea1461026c576100e8565b8063343017ec116100c6578063343017ec1461017a5780634357855e146101aa578063735e8eb5146101d357806379ba5097146101fc576100e8565b80630cdc4cc5146100ed578063240d1bb81461010957806327ca4df114610134575b600080fd5b61010760048036038101906101029190616d5f565b61036c565b005b34801561011557600080fd5b5061011e610cb2565b60405161012b91906170ef565b60405180910390f35b34801561014057600080fd5b5061015b60048036038101906101569190617111565b61102f565b6040516101719a999897969594939291906171b5565b60405180910390f35b610194600480360381019061018f9190617266565b61128b565b6040516101a1919061733a565b60405180910390f35b3480156101b657600080fd5b506101d160048036038101906101cc9190617381565b611b4e565b005b3480156101df57600080fd5b506101fa60048036038101906101f591906173c1565b611c97565b005b34801561020857600080fd5b5061021161257e565b005b34801561021f57600080fd5b50610228612715565b604051610235919061740a565b60405180910390f35b34801561024a57600080fd5b5061025361273f565b005b34801561026157600080fd5b5061026a61288c565b005b34801561027857600080fd5b50610293600480360381019061028e91906173c1565b613307565b6040516102a0919061750d565b60405180910390f35b3480156102b557600080fd5b506102be61396c565b6040516102cb919061752f565b60405180910390f35b3480156102e057600080fd5b506102fb60048036038101906102f6919061754a565b613972565b005b34801561030957600080fd5b50610324600480360381019061031f91906175ee565b61439e565b005b34801561033257600080fd5b5061034d6004803603810190610348919061761b565b6143b2565b6040516103639a999897969594939291906171b5565b60405180910390f35b600082116103af576040517f08c379a00000000000000000000000000000000000000000000000000000000081526004016103a6906176a7565b60405180910390fd5b60006106f387600c805480602002602001604051908101604052809291908181526020016000905b828210156106ea57838290600052602060002090600a02016040518061014001604052908160008201805461040b906176f6565b80601f0160208091040260200160405190810160405280929190818152602001828054610437906176f6565b80156104845780601f1061045957610100808354040283529160200191610484565b820191906000526020600020905b81548152906001019060200180831161046757829003601f168201915b505050505081526020016001820160009054906101000a900473ffffffffffffffffffffffffffffffffffffffff1673ffffffffffffffffffffffffffffffffffffffff1673ffffffffffffffffffffffffffffffffffffffff1681526020016002820180546104f3906176f6565b80601f016020809104026020016040519081016040528092919081815260200182805461051f906176f6565b801561056c5780601f106105415761010080835404028352916020019161056c565b820191906000526020600020905b81548152906001019060200180831161054f57829003601f168201915b50505050508152602001600382015481526020016004820160009054906101000a900473ffffffffffffffffffffffffffffffffffffffff1673ffffffffffffffffffffffffffffffffffffffff1673ffffffffffffffffffffffffffffffffffffffff1681526020016005820154815260200160068201548152602001600782015481526020016008820160009054906101000a900473ffffffffffffffffffffffffffffffffffffffff1673ffffffffffffffffffffffffffffffffffffffff1673ffffffffffffffffffffffffffffffffffffffff168152602001600982018054610659906176f6565b80601f0160208091040260200160405190810160405280929190818152602001828054610685906176f6565b80156106d25780601f106106a7576101008083540402835291602001916106d2565b820191906000526020600020905b8154815290600101906020018083116106b557829003601f168201915b505050505081525050815260200190600101906103d7565b5050505061461b565b9150508015610737576040517f08c379a000000000000000000000000000000000000000000000000000000000815260040161072e90617774565b60405180910390fd5b61074085614714565b15610780576040517f08c379a0000000000000000000000000000000000000000000000000000000008152600401610777906177e0565b60405180910390fd5b8373ffffffffffffffffffffffffffffffffffffffff166323b872dd3330866040518463ffffffff1660e01b81526004016107bd93929190617800565b6020604051808303816000875af11580156107dc573d6000803e3d6000fd5b505050506040513d601f19601f82011682018060405250810190610800919061786f565b15610ca957600061081b60095430634357855e60e01b614721565b90506108c66040518060400160405280600381526020017f6765740000000000000000000000000000000000000000000000000000000000815250846040516020016108679190617996565b6040516020818303038152906040526040516020016108869190617ac2565b604051602081830303815290604052896040516020016108a7929190617ae4565b604051602081830303815290604052836147529092919063ffffffff16565b60006040518061014001604052808a81526020013373ffffffffffffffffffffffffffffffffffffffff168152602001898152602001868152602001600073ffffffffffffffffffffffffffffffffffffffff168152602001600081526020014281526020018881526020018773ffffffffffffffffffffffffffffffffffffffff168152602001858152509050600c8190806001815401808255809150506001900390600052602060002090600a0201600090919091909150600082015181600001908051906020019061099c9291906168d3565b5060208201518160010160006101000a81548173ffffffffffffffffffffffffffffffffffffffff021916908373ffffffffffffffffffffffffffffffffffffffff1602179055506040820151816002019080519060200190610a009291906168d3565b506060820151816003015560808201518160040160006101000a81548173ffffffffffffffffffffffffffffffffffffffff021916908373ffffffffffffffffffffffffffffffffffffffff16021790555060a0820151816005015560c0820151816006015560e082015181600701556101008201518160080160006101000a81548173ffffffffffffffffffffffffffffffffffffffff021916908373ffffffffffffffffffffffffffffffffffffffff160217905550610120820151816009019080519060200190610ad59291906168d3565b505050600b60003373ffffffffffffffffffffffffffffffffffffffff1673ffffffffffffffffffffffffffffffffffffffff1681526020019081526020016000208190806001815401808255809150506001900390600052602060002090600a02016000909190919091506000820151816000019080519060200190610b5d9291906168d3565b5060208201518160010160006101000a81548173ffffffffffffffffffffffffffffffffffffffff021916908373ffffffffffffffffffffffffffffffffffffffff1602179055506040820151816002019080519060200190610bc19291906168d3565b506060820151816003015560808201518160040160006101000a81548173ffffffffffffffffffffffffffffffffffffffff021916908373ffffffffffffffffffffffffffffffffffffffff16021790555060a0820151816005015560c0820151816006015560e082015181600701556101008201518160080160006101000a81548173ffffffffffffffffffffffffffffffffffffffff021916908373ffffffffffffffffffffffffffffffffffffffff160217905550610120820151816009019080519060200190610c969291906168d3565b505050610ca582600a54614785565b5050505b50505050505050565b6060600b60003373ffffffffffffffffffffffffffffffffffffffff1673ffffffffffffffffffffffffffffffffffffffff168152602001908152602001600020805480602002602001604051908101604052809291908181526020016000905b8282101561102657838290600052602060002090600a020160405180610140016040529081600082018054610d47906176f6565b80601f0160208091040260200160405190810160405280929190818152602001828054610d73906176f6565b8015610dc05780601f10610d9557610100808354040283529160200191610dc0565b820191906000526020600020905b815481529060010190602001808311610da357829003601f168201915b505050505081526020016001820160009054906101000a900473ffffffffffffffffffffffffffffffffffffffff1673ffffffffffffffffffffffffffffffffffffffff1673ffffffffffffffffffffffffffffffffffffffff168152602001600282018054610e2f906176f6565b80601f0160208091040260200160405190810160405280929190818152602001828054610e5b906176f6565b8015610ea85780601f10610e7d57610100808354040283529160200191610ea8565b820191906000526020600020905b815481529060010190602001808311610e8b57829003601f168201915b50505050508152602001600382015481526020016004820160009054906101000a900473ffffffffffffffffffffffffffffffffffffffff1673ffffffffffffffffffffffffffffffffffffffff1673ffffffffffffffffffffffffffffffffffffffff1681526020016005820154815260200160068201548152602001600782015481526020016008820160009054906101000a900473ffffffffffffffffffffffffffffffffffffffff1673ffffffffffffffffffffffffffffffffffffffff1673ffffffffffffffffffffffffffffffffffffffff168152602001600982018054610f95906176f6565b80601f0160208091040260200160405190810160405280929190818152602001828054610fc1906176f6565b801561100e5780601f10610fe35761010080835404028352916020019161100e565b820191906000526020600020905b815481529060010190602001808311610ff157829003601f168201915b50505050508152505081526020019060010190610d13565b50505050905090565b600c818154811061103f57600080fd5b90600052602060002090600a0201600091509050806000018054611062906176f6565b80601f016020809104026020016040519081016040528092919081815260200182805461108e906176f6565b80156110db5780601f106110b0576101008083540402835291602001916110db565b820191906000526020600020905b8154815290600101906020018083116110be57829003601f168201915b5050505050908060010160009054906101000a900473ffffffffffffffffffffffffffffffffffffffff1690806002018054611116906176f6565b80601f0160208091040260200160405190810160405280929190818152602001828054611142906176f6565b801561118f5780601f106111645761010080835404028352916020019161118f565b820191906000526020600020905b81548152906001019060200180831161117257829003601f168201915b5050505050908060030154908060040160009054906101000a900473ffffffffffffffffffffffffffffffffffffffff16908060050154908060060154908060070154908060080160009054906101000a900473ffffffffffffffffffffffffffffffffffffffff1690806009018054611208906176f6565b80601f0160208091040260200160405190810160405280929190818152602001828054611234906176f6565b80156112815780601f1061125657610100808354040283529160200191611281565b820191906000526020600020905b81548152906001019060200180831161126457829003601f168201915b505050505090508a565b60008034116112cf576040517f08c379a00000000000000000000000000000000000000000000000000000000081526004016112c6906176a7565b60405180910390fd5b600061161386600c805480602002602001604051908101604052809291908181526020016000905b8282101561160a57838290600052602060002090600a02016040518061014001604052908160008201805461132b906176f6565b80601f0160208091040260200160405190810160405280929190818152602001828054611357906176f6565b80156113a45780601f10611379576101008083540402835291602001916113a4565b820191906000526020600020905b81548152906001019060200180831161138757829003601f168201915b505050505081526020016001820160009054906101000a900473ffffffffffffffffffffffffffffffffffffffff1673ffffffffffffffffffffffffffffffffffffffff1673ffffffffffffffffffffffffffffffffffffffff168152602001600282018054611413906176f6565b80601f016020809104026020016040519081016040528092919081815260200182805461143f906176f6565b801561148c5780601f106114615761010080835404028352916020019161148c565b820191906000526020600020905b81548152906001019060200180831161146f57829003601f168201915b50505050508152602001600382015481526020016004820160009054906101000a900473ffffffffffffffffffffffffffffffffffffffff1673ffffffffffffffffffffffffffffffffffffffff1673ffffffffffffffffffffffffffffffffffffffff1681526020016005820154815260200160068201548152602001600782015481526020016008820160009054906101000a900473ffffffffffffffffffffffffffffffffffffffff1673ffffffffffffffffffffffffffffffffffffffff1673ffffffffffffffffffffffffffffffffffffffff168152602001600982018054611579906176f6565b80601f01602080910402602001604051908101604052809291908181526020018280546115a5906176f6565b80156115f25780601f106115c7576101008083540402835291602001916115f2565b820191906000526020600020905b8154815290600101906020018083116115d557829003601f168201915b505050505081525050815260200190600101906112f7565b5050505061461b565b9150508015611657576040517f08c379a000000000000000000000000000000000000000000000000000000000815260040161164e90617774565b60405180910390fd5b61166084614714565b156116a0576040517f08c379a0000000000000000000000000000000000000000000000000000000008152600401611697906177e0565b60405180910390fd5b60006116b660095430634357855e60e01b614721565b90506117616040518060400160405280600381526020017f6765740000000000000000000000000000000000000000000000000000000000815250856040516020016117029190617996565b6040516020818303038152906040526040516020016117219190617ac2565b60405160208183030381529060405288604051602001611742929190617ae4565b604051602081830303815290604052836147529092919063ffffffff16565b60006040518061014001604052808981526020013373ffffffffffffffffffffffffffffffffffffffff168152602001888152602001348152602001600073ffffffffffffffffffffffffffffffffffffffff16815260200160008152602001428152602001878152602001600073ffffffffffffffffffffffffffffffffffffffff168152602001868152509050600c8190806001815401808255809150506001900390600052602060002090600a020160009091909190915060008201518160000190805190602001906118389291906168d3565b5060208201518160010160006101000a81548173ffffffffffffffffffffffffffffffffffffffff021916908373ffffffffffffffffffffffffffffffffffffffff160217905550604082015181600201908051906020019061189c9291906168d3565b506060820151816003015560808201518160040160006101000a81548173ffffffffffffffffffffffffffffffffffffffff021916908373ffffffffffffffffffffffffffffffffffffffff16021790555060a0820151816005015560c0820151816006015560e082015181600701556101008201518160080160006101000a81548173ffffffffffffffffffffffffffffffffffffffff021916908373ffffffffffffffffffffffffffffffffffffffff1602179055506101208201518160090190805190602001906119719291906168d3565b505050600b60003373ffffffffffffffffffffffffffffffffffffffff1673ffffffffffffffffffffffffffffffffffffffff1681526020019081526020016000208190806001815401808255809150506001900390600052602060002090600a020160009091909190915060008201518160000190805190602001906119f99291906168d3565b5060208201518160010160006101000a81548173ffffffffffffffffffffffffffffffffffffffff021916908373ffffffffffffffffffffffffffffffffffffffff1602179055506040820151816002019080519060200190611a5d9291906168d3565b506060820151816003015560808201518160040160006101000a81548173ffffffffffffffffffffffffffffffffffffffff021916908373ffffffffffffffffffffffffffffffffffffffff16021790555060a0820151816005015560c0820151816006015560e082015181600701556101008201518160080160006101000a81548173ffffffffffffffffffffffffffffffffffffffff021916908373ffffffffffffffffffffffffffffffffffffffff160217905550610120820151816009019080519060200190611b329291906168d3565b505050611b4182600a54614785565b9350505050949350505050565b816005600082815260200190815260200160002060009054906101000a900473ffffffffffffffffffffffffffffffffffffffff1673ffffffffffffffffffffffffffffffffffffffff163373ffffffffffffffffffffffffffffffffffffffff1614611bf0576040517f08c379a0000000000000000000000000000000000000000000000000000000008152600401611be790617b7a565b60405180910390fd5b6005600082815260200190815260200160002060006101000a81549073ffffffffffffffffffffffffffffffffffffffff0219169055807f7cc135e0cebb02c3480ae5d74d377283180a2601f8f644edf7987b009316c63a60405160405180910390a2827f673b38182859a514d734bdfcb49d3a05c4a641dec9311d9894c9717bcb79af7683604051611c83919061752f565b60405180910390a281600881905550505050565b600080611fdc83600c805480602002602001604051908101604052809291908181526020016000905b82821015611fd357838290600052602060002090600a020160405180610140016040529081600082018054611cf4906176f6565b80601f0160208091040260200160405190810160405280929190818152602001828054611d20906176f6565b8015611d6d5780601f10611d4257610100808354040283529160200191611d6d565b820191906000526020600020905b815481529060010190602001808311611d5057829003601f168201915b505050505081526020016001820160009054906101000a900473ffffffffffffffffffffffffffffffffffffffff1673ffffffffffffffffffffffffffffffffffffffff1673ffffffffffffffffffffffffffffffffffffffff168152602001600282018054611ddc906176f6565b80601f0160208091040260200160405190810160405280929190818152602001828054611e08906176f6565b8015611e555780601f10611e2a57610100808354040283529160200191611e55565b820191906000526020600020905b815481529060010190602001808311611e3857829003601f168201915b50505050508152602001600382015481526020016004820160009054906101000a900473ffffffffffffffffffffffffffffffffffffffff1673ffffffffffffffffffffffffffffffffffffffff1673ffffffffffffffffffffffffffffffffffffffff1681526020016005820154815260200160068201548152602001600782015481526020016008820160009054906101000a900473ffffffffffffffffffffffffffffffffffffffff1673ffffffffffffffffffffffffffffffffffffffff1673ffffffffffffffffffffffffffffffffffffffff168152602001600982018054611f42906176f6565b80601f0160208091040260200160405190810160405280929190818152602001828054611f6e906176f6565b8015611fbb5780601f10611f9057610100808354040283529160200191611fbb565b820191906000526020600020905b815481529060010190602001808311611f9e57829003601f168201915b50505050508152505081526020019060010190611cc0565b5050505061461b565b9150915080612020576040517f08c379a000000000000000000000000000000000000000000000000000000000815260040161201790617be6565b60405180910390fd5b3373ffffffffffffffffffffffffffffffffffffffff16600c838154811061204b5761204a617c06565b5b90600052602060002090600a020160010160009054906101000a900473ffffffffffffffffffffffffffffffffffffffff1673ffffffffffffffffffffffffffffffffffffffff16146120d3576040517f08c379a00000000000000000000000000000000000000000000000000000000081526004016120ca90617c81565b60405180910390fd5b6000600c83815481106120e9576120e8617c06565b5b90600052602060002090600a020160405180610140016040529081600082018054612113906176f6565b80601f016020809104026020016040519081016040528092919081815260200182805461213f906176f6565b801561218c5780601f106121615761010080835404028352916020019161218c565b820191906000526020600020905b81548152906001019060200180831161216f57829003601f168201915b505050505081526020016001820160009054906101000a900473ffffffffffffffffffffffffffffffffffffffff1673ffffffffffffffffffffffffffffffffffffffff1673ffffffffffffffffffffffffffffffffffffffff1681526020016002820180546121fb906176f6565b80601f0160208091040260200160405190810160405280929190818152602001828054612227906176f6565b80156122745780601f1061224957610100808354040283529160200191612274565b820191906000526020600020905b81548152906001019060200180831161225757829003601f168201915b50505050508152602001600382015481526020016004820160009054906101000a900473ffffffffffffffffffffffffffffffffffffffff1673ffffffffffffffffffffffffffffffffffffffff1673ffffffffffffffffffffffffffffffffffffffff1681526020016005820154815260200160068201548152602001600782015481526020016008820160009054906101000a900473ffffffffffffffffffffffffffffffffffffffff1673ffffffffffffffffffffffffffffffffffffffff1673ffffffffffffffffffffffffffffffffffffffff168152602001600982018054612361906176f6565b80601f016020809104026020016040519081016040528092919081815260200182805461238d906176f6565b80156123da5780601f106123af576101008083540402835291602001916123da565b820191906000526020600020905b8154815290600101906020018083116123bd57829003601f168201915b5050505050815250509050600073ffffffffffffffffffffffffffffffffffffffff16816080015173ffffffffffffffffffffffffffffffffffffffff16148015612429575060008160a00151145b1561257857600073ffffffffffffffffffffffffffffffffffffffff1681610100015173ffffffffffffffffffffffffffffffffffffffff1614156124d9573373ffffffffffffffffffffffffffffffffffffffff166108fc600c858154811061249657612495617c06565b5b90600052602060002090600a0201600301549081150290604051600060405180830381858888f193505050501580156124d3573d6000803e3d6000fd5b50612562565b80610100015173ffffffffffffffffffffffffffffffffffffffff1663a9059cbb3383606001516040518363ffffffff1660e01b815260040161251d929190617cc2565b6020604051808303816000875af115801561253c573d6000803e3d6000fd5b505050506040513d601f19601f82011682018060405250810190612560919061786f565b505b61256c84336147bc565b5061257684614f5b565b505b50505050565b600760009054906101000a900473ffffffffffffffffffffffffffffffffffffffff1673ffffffffffffffffffffffffffffffffffffffff163373ffffffffffffffffffffffffffffffffffffffff161461260e576040517f08c379a000000000000000000000000000000000000000000000000000000000815260040161260590617d37565b60405180910390fd5b6000600660009054906101000a900473ffffffffffffffffffffffffffffffffffffffff16905033600660006101000a81548173ffffffffffffffffffffffffffffffffffffffff021916908373ffffffffffffffffffffffffffffffffffffffff1602179055506000600760006101000a81548173ffffffffffffffffffffffffffffffffffffffff021916908373ffffffffffffffffffffffffffffffffffffffff1602179055503373ffffffffffffffffffffffffffffffffffffffff168173ffffffffffffffffffffffffffffffffffffffff167f8be0079c531659141344cd1fd0a4f28419497f9722a3daafe3b4186f6b6457e060405160405180910390a350565b6000600660009054906101000a900473ffffffffffffffffffffffffffffffffffffffff16905090565b6127476155c8565b600061275161565a565b90508073ffffffffffffffffffffffffffffffffffffffff1663a9059cbb338373ffffffffffffffffffffffffffffffffffffffff166370a08231306040518263ffffffff1660e01b81526004016127a9919061740a565b602060405180830381865afa1580156127c6573d6000803e3d6000fd5b505050506040513d601f19601f820116820180604052508101906127ea9190617d6c565b6040518363ffffffff1660e01b8152600401612807929190617d99565b6020604051808303816000875af1158015612826573d6000803e3d6000fd5b505050506040513d601f19601f8201168201806040525081019061284a919061786f565b612889576040517f08c379a000000000000000000000000000000000000000000000000000000000815260040161288090617e0e565b60405180910390fd5b50565b60005b600c80549050811015613304576128ca600c82815481106128b3576128b2617c06565b5b90600052602060002090600a020160070154614714565b156132f1576000600c82815481106128e5576128e4617c06565b5b90600052602060002090600a02016040518061014001604052908160008201805461290f906176f6565b80601f016020809104026020016040519081016040528092919081815260200182805461293b906176f6565b80156129885780601f1061295d57610100808354040283529160200191612988565b820191906000526020600020905b81548152906001019060200180831161296b57829003601f168201915b505050505081526020016001820160009054906101000a900473ffffffffffffffffffffffffffffffffffffffff1673ffffffffffffffffffffffffffffffffffffffff1673ffffffffffffffffffffffffffffffffffffffff1681526020016002820180546129f7906176f6565b80601f0160208091040260200160405190810160405280929190818152602001828054612a23906176f6565b8015612a705780601f10612a4557610100808354040283529160200191612a70565b820191906000526020600020905b815481529060010190602001808311612a5357829003601f168201915b50505050508152602001600382015481526020016004820160009054906101000a900473ffffffffffffffffffffffffffffffffffffffff1673ffffffffffffffffffffffffffffffffffffffff1673ffffffffffffffffffffffffffffffffffffffff1681526020016005820154815260200160068201548152602001600782015481526020016008820160009054906101000a900473ffffffffffffffffffffffffffffffffffffffff1673ffffffffffffffffffffffffffffffffffffffff1673ffffffffffffffffffffffffffffffffffffffff168152602001600982018054612b5d906176f6565b80601f0160208091040260200160405190810160405280929190818152602001828054612b89906176f6565b8015612bd65780601f10612bab57610100808354040283529160200191612bd6565b820191906000526020600020905b815481529060010190602001808311612bb957829003601f168201915b5050505050815250509050600c6001600c80549050612bf59190617e5d565b81548110612c0657612c05617c06565b5b90600052602060002090600a0201600c8381548110612c2857612c27617c06565b5b90600052602060002090600a02016000820181600001908054612c4a906176f6565b612c55929190616959565b506001820160009054906101000a900473ffffffffffffffffffffffffffffffffffffffff168160010160006101000a81548173ffffffffffffffffffffffffffffffffffffffff021916908373ffffffffffffffffffffffffffffffffffffffff1602179055506002820181600201908054612cd1906176f6565b612cdc929190616959565b50600382015481600301556004820160009054906101000a900473ffffffffffffffffffffffffffffffffffffffff168160040160006101000a81548173ffffffffffffffffffffffffffffffffffffffff021916908373ffffffffffffffffffffffffffffffffffffffff1602179055506005820154816005015560068201548160060155600782015481600701556008820160009054906101000a900473ffffffffffffffffffffffffffffffffffffffff168160080160006101000a81548173ffffffffffffffffffffffffffffffffffffffff021916908373ffffffffffffffffffffffffffffffffffffffff1602179055506009820181600901908054612de7906176f6565b612df2929190616959565b50905050600b6000826020015173ffffffffffffffffffffffffffffffffffffffff1673ffffffffffffffffffffffffffffffffffffffff1681526020019081526020016000206001600b6000846020015173ffffffffffffffffffffffffffffffffffffffff1673ffffffffffffffffffffffffffffffffffffffff16815260200190815260200160002080549050612e8c9190617e5d565b81548110612e9d57612e9c617c06565b5b90600052602060002090600a0201600b6000836020015173ffffffffffffffffffffffffffffffffffffffff1673ffffffffffffffffffffffffffffffffffffffff1681526020019081526020016000208381548110612f0057612eff617c06565b5b90600052602060002090600a02016000820181600001908054612f22906176f6565b612f2d929190616959565b506001820160009054906101000a900473ffffffffffffffffffffffffffffffffffffffff168160010160006101000a81548173ffffffffffffffffffffffffffffffffffffffff021916908373ffffffffffffffffffffffffffffffffffffffff1602179055506002820181600201908054612fa9906176f6565b612fb4929190616959565b50600382015481600301556004820160009054906101000a900473ffffffffffffffffffffffffffffffffffffffff168160040160006101000a81548173ffffffffffffffffffffffffffffffffffffffff021916908373ffffffffffffffffffffffffffffffffffffffff1602179055506005820154816005015560068201548160060155600782015481600701556008820160009054906101000a900473ffffffffffffffffffffffffffffffffffffffff168160080160006101000a81548173ffffffffffffffffffffffffffffffffffffffff021916908373ffffffffffffffffffffffffffffffffffffffff16021790555060098201816009019080546130bf906176f6565b6130ca929190616959565b50905050600c8054806130e0576130df617e91565b5b60019003818190600052602060002090600a02016000808201600061310591906169e6565b6001820160006101000a81549073ffffffffffffffffffffffffffffffffffffffff021916905560028201600061313c91906169e6565b60038201600090556004820160006101000a81549073ffffffffffffffffffffffffffffffffffffffff02191690556005820160009055600682016000905560078201600090556008820160006101000a81549073ffffffffffffffffffffffffffffffffffffffff02191690556009820160006131ba91906169e6565b50509055600b6000826020015173ffffffffffffffffffffffffffffffffffffffff1673ffffffffffffffffffffffffffffffffffffffff16815260200190815260200160002080548061321157613210617e91565b5b60019003818190600052602060002090600a02016000808201600061323691906169e6565b6001820160006101000a81549073ffffffffffffffffffffffffffffffffffffffff021916905560028201600061326d91906169e6565b60038201600090556004820160006101000a81549073ffffffffffffffffffffffffffffffffffffffff02191690556005820160009055600682016000905560078201600090556008820160006101000a81549073ffffffffffffffffffffffffffffffffffffffff02191690556009820160006132eb91906169e6565b50509055505b80806132fc90617ec0565b91505061288f565b50565b61330f616a26565b600061365383600c805480602002602001604051908101604052809291908181526020016000905b8282101561364a57838290600052602060002090600a02016040518061014001604052908160008201805461336b906176f6565b80601f0160208091040260200160405190810160405280929190818152602001828054613397906176f6565b80156133e45780601f106133b9576101008083540402835291602001916133e4565b820191906000526020600020905b8154815290600101906020018083116133c757829003601f168201915b505050505081526020016001820160009054906101000a900473ffffffffffffffffffffffffffffffffffffffff1673ffffffffffffffffffffffffffffffffffffffff1673ffffffffffffffffffffffffffffffffffffffff168152602001600282018054613453906176f6565b80601f016020809104026020016040519081016040528092919081815260200182805461347f906176f6565b80156134cc5780601f106134a1576101008083540402835291602001916134cc565b820191906000526020600020905b8154815290600101906020018083116134af57829003601f168201915b50505050508152602001600382015481526020016004820160009054906101000a900473ffffffffffffffffffffffffffffffffffffffff1673ffffffffffffffffffffffffffffffffffffffff1673ffffffffffffffffffffffffffffffffffffffff1681526020016005820154815260200160068201548152602001600782015481526020016008820160009054906101000a900473ffffffffffffffffffffffffffffffffffffffff1673ffffffffffffffffffffffffffffffffffffffff1673ffffffffffffffffffffffffffffffffffffffff1681526020016009820180546135b9906176f6565b80601f01602080910402602001604051908101604052809291908181526020018280546135e5906176f6565b80156136325780601f1061360757610100808354040283529160200191613632565b820191906000526020600020905b81548152906001019060200180831161361557829003601f168201915b50505050508152505081526020019060010190613337565b5050505061461b565b509050600c818154811061366a57613669617c06565b5b90600052602060002090600a020160405180610140016040529081600082018054613694906176f6565b80601f01602080910402602001604051908101604052809291908181526020018280546136c0906176f6565b801561370d5780601f106136e25761010080835404028352916020019161370d565b820191906000526020600020905b8154815290600101906020018083116136f057829003601f168201915b505050505081526020016001820160009054906101000a900473ffffffffffffffffffffffffffffffffffffffff1673ffffffffffffffffffffffffffffffffffffffff1673ffffffffffffffffffffffffffffffffffffffff16815260200160028201805461377c906176f6565b80601f01602080910402602001604051908101604052809291908181526020018280546137a8906176f6565b80156137f55780601f106137ca576101008083540402835291602001916137f5565b820191906000526020600020905b8154815290600101906020018083116137d857829003601f168201915b50505050508152602001600382015481526020016004820160009054906101000a900473ffffffffffffffffffffffffffffffffffffffff1673ffffffffffffffffffffffffffffffffffffffff1673ffffffffffffffffffffffffffffffffffffffff1681526020016005820154815260200160068201548152602001600782015481526020016008820160009054906101000a900473ffffffffffffffffffffffffffffffffffffffff1673ffffffffffffffffffffffffffffffffffffffff1673ffffffffffffffffffffffffffffffffffffffff1681526020016009820180546138e2906176f6565b80601f016020809104026020016040519081016040528092919081815260200182805461390e906176f6565b801561395b5780601f106139305761010080835404028352916020019161395b565b820191906000526020600020905b81548152906001019060200180831161393e57829003601f168201915b505050505081525050915050919050565b60085481565b600080613cb784600c805480602002602001604051908101604052809291908181526020016000905b82821015613cae57838290600052602060002090600a0201604051806101400160405290816000820180546139cf906176f6565b80601f01602080910402602001604051908101604052809291908181526020018280546139fb906176f6565b8015613a485780601f10613a1d57610100808354040283529160200191613a48565b820191906000526020600020905b815481529060010190602001808311613a2b57829003601f168201915b505050505081526020016001820160009054906101000a900473ffffffffffffffffffffffffffffffffffffffff1673ffffffffffffffffffffffffffffffffffffffff1673ffffffffffffffffffffffffffffffffffffffff168152602001600282018054613ab7906176f6565b80601f0160208091040260200160405190810160405280929190818152602001828054613ae3906176f6565b8015613b305780601f10613b0557610100808354040283529160200191613b30565b820191906000526020600020905b815481529060010190602001808311613b1357829003601f168201915b50505050508152602001600382015481526020016004820160009054906101000a900473ffffffffffffffffffffffffffffffffffffffff1673ffffffffffffffffffffffffffffffffffffffff1673ffffffffffffffffffffffffffffffffffffffff1681526020016005820154815260200160068201548152602001600782015481526020016008820160009054906101000a900473ffffffffffffffffffffffffffffffffffffffff1673ffffffffffffffffffffffffffffffffffffffff1673ffffffffffffffffffffffffffffffffffffffff168152602001600982018054613c1d906176f6565b80601f0160208091040260200160405190810160405280929190818152602001828054613c49906176f6565b8015613c965780601f10613c6b57610100808354040283529160200191613c96565b820191906000526020600020905b815481529060010190602001808311613c7957829003601f168201915b5050505050815250508152602001906001019061399b565b5050505061461b565b915091506000600c8381548110613cd157613cd0617c06565b5b90600052602060002090600a020190506000613d40600286604051613cf69190617f50565b602060405180830381855afa158015613d13573d6000803e3d6000fd5b5050506040513d601f19601f82011682018060405250810190613d369190617f7c565b60001c6020615684565b9050828015613de15750613de081836002018054613d5d906176f6565b80601f0160208091040260200160405190810160405280929190818152602001828054613d89906176f6565b8015613dd65780601f10613dab57610100808354040283529160200191613dd6565b820191906000526020600020905b815481529060010190602001808311613db957829003601f168201915b50505050506158c0565b5b613e20576040517f08c379a0000000000000000000000000000000000000000000000000000000008152600401613e1790617ff5565b60405180910390fd5b600073ffffffffffffffffffffffffffffffffffffffff168260040160009054906101000a900473ffffffffffffffffffffffffffffffffffffffff1673ffffffffffffffffffffffffffffffffffffffff1614613eb3576040517f08c379a0000000000000000000000000000000000000000000000000000000008152600401613eaa90618061565b60405180910390fd5b613ec08260070154614714565b15613f00576040517f08c379a0000000000000000000000000000000000000000000000000000000008152600401613ef7906180cd565b60405180910390fd5b600073ffffffffffffffffffffffffffffffffffffffff168260080160009054906101000a900473ffffffffffffffffffffffffffffffffffffffff1673ffffffffffffffffffffffffffffffffffffffff161415613fa9573373ffffffffffffffffffffffffffffffffffffffff166108fc83600301549081150290604051600060405180830381858888f19350505050158015613fa3573d6000803e3d6000fd5b50614051565b8160080160009054906101000a900473ffffffffffffffffffffffffffffffffffffffff1673ffffffffffffffffffffffffffffffffffffffff1663a9059cbb3384600301546040518363ffffffff1660e01b815260040161400c929190617cc2565b6020604051808303816000875af115801561402b573d6000803e3d6000fd5b505050506040513d601f19601f8201168201806040525081019061404f919061786f565b505b338260040160006101000a81548173ffffffffffffffffffffffffffffffffffffffff021916908373ffffffffffffffffffffffffffffffffffffffff1602179055508160030154826005018190555061439682604051806101400160405290816000820180546140c1906176f6565b80601f01602080910402602001604051908101604052809291908181526020018280546140ed906176f6565b801561413a5780601f1061410f5761010080835404028352916020019161413a565b820191906000526020600020905b81548152906001019060200180831161411d57829003601f168201915b505050505081526020016001820160009054906101000a900473ffffffffffffffffffffffffffffffffffffffff1673ffffffffffffffffffffffffffffffffffffffff1673ffffffffffffffffffffffffffffffffffffffff1681526020016002820180546141a9906176f6565b80601f01602080910402602001604051908101604052809291908181526020018280546141d5906176f6565b80156142225780601f106141f757610100808354040283529160200191614222565b820191906000526020600020905b81548152906001019060200180831161420557829003601f168201915b50505050508152602001600382015481526020016004820160009054906101000a900473ffffffffffffffffffffffffffffffffffffffff1673ffffffffffffffffffffffffffffffffffffffff1673ffffffffffffffffffffffffffffffffffffffff1681526020016005820154815260200160068201548152602001600782015481526020016008820160009054906101000a900473ffffffffffffffffffffffffffffffffffffffff1673ffffffffffffffffffffffffffffffffffffffff1673ffffffffffffffffffffffffffffffffffffffff16815260200160098201805461430f906176f6565b80601f016020809104026020016040519081016040528092919081815260200182805461433b906176f6565b80156143885780601f1061435d57610100808354040283529160200191614388565b820191906000526020600020905b81548152906001019060200180831161436b57829003601f168201915b5050505050815250506158d6565b505050505050565b6143a66155c8565b6143af81615e2d565b50565b600b60205281600052604060002081815481106143ce57600080fd5b90600052602060002090600a0201600091509150508060000180546143f2906176f6565b80601f016020809104026020016040519081016040528092919081815260200182805461441e906176f6565b801561446b5780601f106144405761010080835404028352916020019161446b565b820191906000526020600020905b81548152906001019060200180831161444e57829003601f168201915b5050505050908060010160009054906101000a900473ffffffffffffffffffffffffffffffffffffffff16908060020180546144a6906176f6565b80601f01602080910402602001604051908101604052809291908181526020018280546144d2906176f6565b801561451f5780601f106144f45761010080835404028352916020019161451f565b820191906000526020600020905b81548152906001019060200180831161450257829003601f168201915b5050505050908060030154908060040160009054906101000a900473ffffffffffffffffffffffffffffffffffffffff16908060050154908060060154908060070154908060080160009054906101000a900473ffffffffffffffffffffffffffffffffffffffff1690806009018054614598906176f6565b80601f01602080910402602001604051908101604052809291908181526020018280546145c4906176f6565b80156146115780601f106145e657610100808354040283529160200191614611565b820191906000526020600020905b8154815290600101906020018083116145f457829003601f168201915b505050505090508a565b60008060005b8351811015614704576146e1600c828154811061464157614640617c06565b5b90600052602060002090600a0201600001805461465d906176f6565b80601f0160208091040260200160405190810160405280929190818152602001828054614689906176f6565b80156146d65780601f106146ab576101008083540402835291602001916146d6565b820191906000526020600020905b8154815290600101906020018083116146b957829003601f168201915b5050505050866158c0565b156146f357806001925092505061470d565b806146fd90617ec0565b9050614621565b50600080915091505b9250929050565b6000814210159050919050565b614729616abb565b614731616abb565b61474885858584615f5c909392919063ffffffff16565b9150509392505050565b61476982846080015161600c90919063ffffffff16565b61478081846080015161600c90919063ffffffff16565b505050565b60006147b4600360009054906101000a900473ffffffffffffffffffffffffffffffffffffffff168484616031565b905092915050565b6000806000614b4085600b60008773ffffffffffffffffffffffffffffffffffffffff1673ffffffffffffffffffffffffffffffffffffffff168152602001908152602001600020805480602002602001604051908101604052809291908181526020016000905b82821015614b3757838290600052602060002090600a020160405180610140016040529081600082018054614858906176f6565b80601f0160208091040260200160405190810160405280929190818152602001828054614884906176f6565b80156148d15780601f106148a6576101008083540402835291602001916148d1565b820191906000526020600020905b8154815290600101906020018083116148b457829003601f168201915b505050505081526020016001820160009054906101000a900473ffffffffffffffffffffffffffffffffffffffff1673ffffffffffffffffffffffffffffffffffffffff1673ffffffffffffffffffffffffffffffffffffffff168152602001600282018054614940906176f6565b80601f016020809104026020016040519081016040528092919081815260200182805461496c906176f6565b80156149b95780601f1061498e576101008083540402835291602001916149b9565b820191906000526020600020905b81548152906001019060200180831161499c57829003601f168201915b50505050508152602001600382015481526020016004820160009054906101000a900473ffffffffffffffffffffffffffffffffffffffff1673ffffffffffffffffffffffffffffffffffffffff1673ffffffffffffffffffffffffffffffffffffffff1681526020016005820154815260200160068201548152602001600782015481526020016008820160009054906101000a900473ffffffffffffffffffffffffffffffffffffffff1673ffffffffffffffffffffffffffffffffffffffff1673ffffffffffffffffffffffffffffffffffffffff168152602001600982018054614aa6906176f6565b80601f0160208091040260200160405190810160405280929190818152602001828054614ad2906176f6565b8015614b1f5780601f10614af457610100808354040283529160200191614b1f565b820191906000526020600020905b815481529060010190602001808311614b0257829003601f168201915b50505050508152505081526020019060010190614824565b5050505061461b565b915091508015614f4e57600b60008573ffffffffffffffffffffffffffffffffffffffff1673ffffffffffffffffffffffffffffffffffffffff1681526020019081526020016000206001600b60008773ffffffffffffffffffffffffffffffffffffffff1673ffffffffffffffffffffffffffffffffffffffff16815260200190815260200160002080549050614bd89190617e5d565b81548110614be957614be8617c06565b5b90600052602060002090600a0201600b60008673ffffffffffffffffffffffffffffffffffffffff1673ffffffffffffffffffffffffffffffffffffffff1681526020019081526020016000208381548110614c4857614c47617c06565b5b90600052602060002090600a02016000820181600001908054614c6a906176f6565b614c75929190616959565b506001820160009054906101000a900473ffffffffffffffffffffffffffffffffffffffff168160010160006101000a81548173ffffffffffffffffffffffffffffffffffffffff021916908373ffffffffffffffffffffffffffffffffffffffff1602179055506002820181600201908054614cf1906176f6565b614cfc929190616959565b50600382015481600301556004820160009054906101000a900473ffffffffffffffffffffffffffffffffffffffff168160040160006101000a81548173ffffffffffffffffffffffffffffffffffffffff021916908373ffffffffffffffffffffffffffffffffffffffff1602179055506005820154816005015560068201548160060155600782015481600701556008820160009054906101000a900473ffffffffffffffffffffffffffffffffffffffff168160080160006101000a81548173ffffffffffffffffffffffffffffffffffffffff021916908373ffffffffffffffffffffffffffffffffffffffff1602179055506009820181600901908054614e07906176f6565b614e12929190616959565b50905050600b60008573ffffffffffffffffffffffffffffffffffffffff1673ffffffffffffffffffffffffffffffffffffffff168152602001908152602001600020805480614e6557614e64617e91565b5b60019003818190600052602060002090600a020160008082016000614e8a91906169e6565b6001820160006101000a81549073ffffffffffffffffffffffffffffffffffffffff0219169055600282016000614ec191906169e6565b60038201600090556004820160006101000a81549073ffffffffffffffffffffffffffffffffffffffff02191690556005820160009055600682016000905560078201600090556008820160006101000a81549073ffffffffffffffffffffffffffffffffffffffff0219169055600982016000614f3f91906169e6565b50509055600192505050614f55565b6000925050505b92915050565b60008060006152a284600c805480602002602001604051908101604052809291908181526020016000905b8282101561529957838290600052602060002090600a020160405180610140016040529081600082018054614fba906176f6565b80601f0160208091040260200160405190810160405280929190818152602001828054614fe6906176f6565b80156150335780601f1061500857610100808354040283529160200191615033565b820191906000526020600020905b81548152906001019060200180831161501657829003601f168201915b505050505081526020016001820160009054906101000a900473ffffffffffffffffffffffffffffffffffffffff1673ffffffffffffffffffffffffffffffffffffffff1673ffffffffffffffffffffffffffffffffffffffff1681526020016002820180546150a2906176f6565b80601f01602080910402602001604051908101604052809291908181526020018280546150ce906176f6565b801561511b5780601f106150f05761010080835404028352916020019161511b565b820191906000526020600020905b8154815290600101906020018083116150fe57829003601f168201915b50505050508152602001600382015481526020016004820160009054906101000a900473ffffffffffffffffffffffffffffffffffffffff1673ffffffffffffffffffffffffffffffffffffffff1673ffffffffffffffffffffffffffffffffffffffff1681526020016005820154815260200160068201548152602001600782015481526020016008820160009054906101000a900473ffffffffffffffffffffffffffffffffffffffff1673ffffffffffffffffffffffffffffffffffffffff1673ffffffffffffffffffffffffffffffffffffffff168152602001600982018054615208906176f6565b80601f0160208091040260200160405190810160405280929190818152602001828054615234906176f6565b80156152815780601f1061525657610100808354040283529160200191615281565b820191906000526020600020905b81548152906001019060200180831161526457829003601f168201915b50505050508152505081526020019060010190614f86565b5050505061461b565b9150915080156155bc57600c6001600c805490506152c09190617e5d565b815481106152d1576152d0617c06565b5b90600052602060002090600a0201600c83815481106152f3576152f2617c06565b5b90600052602060002090600a02016000820181600001908054615315906176f6565b615320929190616959565b506001820160009054906101000a900473ffffffffffffffffffffffffffffffffffffffff168160010160006101000a81548173ffffffffffffffffffffffffffffffffffffffff021916908373ffffffffffffffffffffffffffffffffffffffff160217905550600282018160020190805461539c906176f6565b6153a7929190616959565b50600382015481600301556004820160009054906101000a900473ffffffffffffffffffffffffffffffffffffffff168160040160006101000a81548173ffffffffffffffffffffffffffffffffffffffff021916908373ffffffffffffffffffffffffffffffffffffffff1602179055506005820154816005015560068201548160060155600782015481600701556008820160009054906101000a900473ffffffffffffffffffffffffffffffffffffffff168160080160006101000a81548173ffffffffffffffffffffffffffffffffffffffff021916908373ffffffffffffffffffffffffffffffffffffffff16021790555060098201816009019080546154b2906176f6565b6154bd929190616959565b50905050600c8054806154d3576154d2617e91565b5b60019003818190600052602060002090600a0201600080820160006154f891906169e6565b6001820160006101000a81549073ffffffffffffffffffffffffffffffffffffffff021916905560028201600061552f91906169e6565b60038201600090556004820160006101000a81549073ffffffffffffffffffffffffffffffffffffffff02191690556005820160009055600682016000905560078201600090556008820160006101000a81549073ffffffffffffffffffffffffffffffffffffffff02191690556009820160006155ad91906169e6565b505090556001925050506155c3565b6000925050505b919050565b600660009054906101000a900473ffffffffffffffffffffffffffffffffffffffff1673ffffffffffffffffffffffffffffffffffffffff163373ffffffffffffffffffffffffffffffffffffffff1614615658576040517f08c379a000000000000000000000000000000000000000000000000000000000815260040161564f90618139565b60405180910390fd5b565b6000600260009054906101000a900473ffffffffffffffffffffffffffffffffffffffff16905090565b6060600060028360026156979190618159565b6156a191906181b3565b67ffffffffffffffff8111156156ba576156b9616b8e565b5b6040519080825280601f01601f1916602001820160405280156156ec5781602001600182028036833780820191505090505b5090507f30000000000000000000000000000000000000000000000000000000000000008160008151811061572457615723617c06565b5b60200101907effffffffffffffffffffffffffffffffffffffffffffffffffffffffffffff1916908160001a9053507f78000000000000000000000000000000000000000000000000000000000000008160018151811061578857615787617c06565b5b60200101907effffffffffffffffffffffffffffffffffffffffffffffffffffffffffffff1916908160001a905350600060018460026157c89190618159565b6157d291906181b3565b90505b6001811115615872577f3031323334353637383961626364656600000000000000000000000000000000600f86166010811061581457615813617c06565b5b1a60f81b82828151811061582b5761582a617c06565b5b60200101907effffffffffffffffffffffffffffffffffffffffffffffffffffffffffffff1916908160001a905350600485901c94508061586b90618209565b90506157d5565b50600084146158b6576040517f08c379a00000000000000000000000000000000000000000000000000000000081526004016158ad9061827f565b60405180910390fd5b8091505092915050565b6000806158cd84846160fd565b14905092915050565b600080615c608360000151600b6000866020015173ffffffffffffffffffffffffffffffffffffffff1673ffffffffffffffffffffffffffffffffffffffff168152602001908152602001600020805480602002602001604051908101604052809291908181526020016000905b82821015615c5757838290600052602060002090600a020160405180610140016040529081600082018054615978906176f6565b80601f01602080910402602001604051908101604052809291908181526020018280546159a4906176f6565b80156159f15780601f106159c6576101008083540402835291602001916159f1565b820191906000526020600020905b8154815290600101906020018083116159d457829003601f168201915b505050505081526020016001820160009054906101000a900473ffffffffffffffffffffffffffffffffffffffff1673ffffffffffffffffffffffffffffffffffffffff1673ffffffffffffffffffffffffffffffffffffffff168152602001600282018054615a60906176f6565b80601f0160208091040260200160405190810160405280929190818152602001828054615a8c906176f6565b8015615ad95780601f10615aae57610100808354040283529160200191615ad9565b820191906000526020600020905b815481529060010190602001808311615abc57829003601f168201915b50505050508152602001600382015481526020016004820160009054906101000a900473ffffffffffffffffffffffffffffffffffffffff1673ffffffffffffffffffffffffffffffffffffffff1673ffffffffffffffffffffffffffffffffffffffff1681526020016005820154815260200160068201548152602001600782015481526020016008820160009054906101000a900473ffffffffffffffffffffffffffffffffffffffff1673ffffffffffffffffffffffffffffffffffffffff1673ffffffffffffffffffffffffffffffffffffffff168152602001600982018054615bc6906176f6565b80601f0160208091040260200160405190810160405280929190818152602001828054615bf2906176f6565b8015615c3f5780601f10615c1457610100808354040283529160200191615c3f565b820191906000526020600020905b815481529060010190602001808311615c2257829003601f168201915b50505050508152505081526020019060010190615944565b5050505061461b565b915091508015615e285782600b6000856020015173ffffffffffffffffffffffffffffffffffffffff1673ffffffffffffffffffffffffffffffffffffffff1681526020019081526020016000208381548110615cc057615cbf617c06565b5b90600052602060002090600a02016000820151816000019080519060200190615cea9291906168d3565b5060208201518160010160006101000a81548173ffffffffffffffffffffffffffffffffffffffff021916908373ffffffffffffffffffffffffffffffffffffffff1602179055506040820151816002019080519060200190615d4e9291906168d3565b506060820151816003015560808201518160040160006101000a81548173ffffffffffffffffffffffffffffffffffffffff021916908373ffffffffffffffffffffffffffffffffffffffff16021790555060a0820151816005015560c0820151816006015560e082015181600701556101008201518160080160006101000a81548173ffffffffffffffffffffffffffffffffffffffff021916908373ffffffffffffffffffffffffffffffffffffffff160217905550610120820151816009019080519060200190615e239291906168d3565b509050505b505050565b3373ffffffffffffffffffffffffffffffffffffffff168173ffffffffffffffffffffffffffffffffffffffff161415615e9c576040517f08c379a0000000000000000000000000000000000000000000000000000000008152600401615e93906182eb565b60405180910390fd5b80600760006101000a81548173ffffffffffffffffffffffffffffffffffffffff021916908373ffffffffffffffffffffffffffffffffffffffff1602179055508073ffffffffffffffffffffffffffffffffffffffff16600660009054906101000a900473ffffffffffffffffffffffffffffffffffffffff1673ffffffffffffffffffffffffffffffffffffffff167fed8889f560326eb138920d842192f0eb3dd22b4f139c87a2c57538e05bae127860405160405180910390a350565b615f64616abb565b615f7485608001516101006162d7565b508385600001818152505082856020019073ffffffffffffffffffffffffffffffffffffffff16908173ffffffffffffffffffffffffffffffffffffffff16815250508185604001907bffffffffffffffffffffffffffffffffffffffffffffffffffffffff191690817bffffffffffffffffffffffffffffffffffffffffffffffffffffffff191681525050849050949350505050565b6160198260038351616341565b61602c81836164c690919063ffffffff16565b505050565b600080600454905060018161604691906181b3565b6004819055506000634042994660e01b60008087600001513089604001518760018c6080015160000151604051602401616087989796959493929190618390565b604051602081830303815290604052907bffffffffffffffffffffffffffffffffffffffffffffffffffffffff19166020820180517bffffffffffffffffffffffffffffffffffffffffffffffffffffffff838183161783525050505090506160f2868386846164e8565b925050509392505050565b6000808390506000839050600082519050808251101561611c57815190505b60005b8181101561627d5782818151811061613a57616139617c06565b5b602001015160f81c60f81b7effffffffffffffffffffffffffffffffffffffffffffffffffffffffffffff191684828151811061617a57616179617c06565b5b602001015160f81c60f81b7effffffffffffffffffffffffffffffffffffffffffffffffffffffffffffff191610156161d9577fffffffffffffffffffffffffffffffffffffffffffffffffffffffffffffffff9450505050506162d1565b8281815181106161ec576161eb617c06565b5b602001015160f81c60f81b7effffffffffffffffffffffffffffffffffffffffffffffffffffffffffffff191684828151811061622c5761622b617c06565b5b602001015160f81c60f81b7effffffffffffffffffffffffffffffffffffffffffffffffffffffffffffff1916111561626c5760019450505050506162d1565b8061627690617ec0565b905061611f565b508151835110156162b3577fffffffffffffffffffffffffffffffffffffffffffffffffffffffffffffffff93505050506162d1565b8151835111156162c957600193505050506162d1565b600093505050505b92915050565b6162df616b28565b60006020836162ee9190618444565b1461631a576020826163009190618444565b602061630c9190617e5d565b8261631791906181b3565b91505b81836020018181525050604051808452600081528281016020016040525082905092915050565b60178167ffffffffffffffff1611616378576163728160058460ff16901b60ff16178461667d90919063ffffffff16565b506164c1565b60ff8167ffffffffffffffff16116163ce576163a7601860058460ff16901b178461667d90919063ffffffff16565b506163c88167ffffffffffffffff1660018561669d9092919063ffffffff16565b506164c0565b61ffff8167ffffffffffffffff1611616425576163fe601960058460ff16901b178461667d90919063ffffffff16565b5061641f8167ffffffffffffffff1660028561669d9092919063ffffffff16565b506164bf565b63ffffffff8167ffffffffffffffff161161647e57616457601a60058460ff16901b178461667d90919063ffffffff16565b506164788167ffffffffffffffff1660048561669d9092919063ffffffff16565b506164be565b61649b601b60058460ff16901b178461667d90919063ffffffff16565b506164bc8167ffffffffffffffff1660088561669d9092919063ffffffff16565b505b5b5b5b505050565b6164ce616b28565b6164e0838460000151518485516166bf565b905092915050565b600030846040516020016164fd9291906184f0565b604051602081830303815290604052805190602001209050846005600083815260200190815260200160002060006101000a81548173ffffffffffffffffffffffffffffffffffffffff021916908373ffffffffffffffffffffffffffffffffffffffff160217905550807fb5e6e01e79f91267dc17b4e6314d5d4d03593d2ceee0fbb452b750bd70ea5af960405160405180910390a2600260009054906101000a900473ffffffffffffffffffffffffffffffffffffffff1673ffffffffffffffffffffffffffffffffffffffff16634000aea08685856040518463ffffffff1660e01b81526004016165f39392919061851c565b6020604051808303816000875af1158015616612573d6000803e3d6000fd5b505050506040513d601f19601f82011682018060405250810190616636919061786f565b616675576040517f08c379a000000000000000000000000000000000000000000000000000000000815260040161666c906185cc565b60405180910390fd5b949350505050565b616685616b28565b61669583846000015151846167ae565b905092915050565b6166a5616b28565b6166b6848560000151518585616805565b90509392505050565b6166c7616b28565b82518211156166d557600080fd5b846020015182856166e691906181b3565b111561671b5761671a85600261670b8860200151888761670691906181b3565b616893565b6167159190618159565b6168af565b5b60008086518051876020830101935080888701111561673a5787860182525b60208701925050505b60208410616781578051825260208261675c91906181b3565b915060208161676b91906181b3565b905060208461677a9190617e5d565b9350616743565b60006001856020036101000a03905080198251168184511681811785525050508692505050949350505050565b6167b6616b28565b836020015183106167dc576167db84600286602001516167d69190618159565b6168af565b5b83518051602085830101848153818614156167f8576001820183525b5050508390509392505050565b61680d616b28565b8460200151848361681e91906181b3565b111561684657616845856002868561683691906181b3565b6168409190618159565b6168af565b5b6000600183610100616858919061871f565b6168629190617e5d565b905085518386820101858319825116178152815185880111156168855784870182525b505085915050949350505050565b6000818311156168a5578290506168a9565b8190505b92915050565b6000826000015190506168c283836162d7565b506168cd83826164c6565b50505050565b8280546168df906176f6565b90600052602060002090601f0160209004810192826169015760008555616948565b82601f1061691a57805160ff1916838001178555616948565b82800160010185558215616948579182015b8281111561694757825182559160200191906001019061692c565b5b5090506169559190616b42565b5090565b828054616965906176f6565b90600052602060002090601f01602090048101928261698757600085556169d5565b82601f1061699857805485556169d5565b828001600101855582156169d557600052602060002091601f016020900482015b828111156169d45782548255916001019190600101906169b9565b5b5090506169e29190616b42565b5090565b5080546169f2906176f6565b6000825580601f10616a045750616a23565b601f016020900490600052602060002090810190616a229190616b42565b5b50565b60405180610140016040528060608152602001600073ffffffffffffffffffffffffffffffffffffffff1681526020016060815260200160008152602001600073ffffffffffffffffffffffffffffffffffffffff168152602001600081526020016000815260200160008152602001600073ffffffffffffffffffffffffffffffffffffffff168152602001606081525090565b6040518060a0016040528060008019168152602001600073ffffffffffffffffffffffffffffffffffffffff16815260200160007bffffffffffffffffffffffffffffffffffffffffffffffffffffffff1916815260200160008152602001616b22616b28565b81525090565b604051806040016040528060608152602001600081525090565b5b80821115616b5b576000816000905550600101616b43565b5090565b6000604051905090565b600080fd5b600080fd5b600080fd5b600080fd5b6000601f19601f8301169050919050565b7f4e487b7100000000000000000000000000000000000000000000000000000000600052604160045260246000fd5b616bc682616b7d565b810181811067ffffffffffffffff82111715616be557616be4616b8e565b5b80604052505050565b6000616bf8616b5f565b9050616c048282616bbd565b919050565b600067ffffffffffffffff821115616c2457616c23616b8e565b5b616c2d82616b7d565b9050602081019050919050565b82818337600083830152505050565b6000616c5c616c5784616c09565b616bee565b905082815260208101848484011115616c7857616c77616b78565b5b616c83848285616c3a565b509392505050565b600082601f830112616ca057616c9f616b73565b5b8135616cb0848260208601616c49565b91505092915050565b6000819050919050565b616ccc81616cb9565b8114616cd757600080fd5b50565b600081359050616ce981616cc3565b92915050565b600073ffffffffffffffffffffffffffffffffffffffff82169050919050565b6000616d1a82616cef565b9050919050565b6000616d2c82616d0f565b9050919050565b616d3c81616d21565b8114616d4757600080fd5b50565b600081359050616d5981616d33565b92915050565b60008060008060008060c08789031215616d7c57616d7b616b69565b5b600087013567ffffffffffffffff811115616d9a57616d99616b6e565b5b616da689828a01616c8b565b965050602087013567ffffffffffffffff811115616dc757616dc6616b6e565b5b616dd389828a01616c8b565b9550506040616de489828a01616cda565b9450506060616df589828a01616d4a565b9350506080616e0689828a01616cda565b92505060a087013567ffffffffffffffff811115616e2757616e26616b6e565b5b616e3389828a01616c8b565b9150509295509295509295565b600081519050919050565b600082825260208201905092915050565b6000819050602082019050919050565b600081519050919050565b600082825260208201905092915050565b60005b83811015616ea6578082015181840152602081019050616e8b565b83811115616eb5576000848401525b50505050565b6000616ec682616e6c565b616ed08185616e77565b9350616ee0818560208601616e88565b616ee981616b7d565b840191505092915050565b616efd81616d0f565b82525050565b616f0c81616cb9565b82525050565b6000819050919050565b6000616f37616f32616f2d84616cef565b616f12565b616cef565b9050919050565b6000616f4982616f1c565b9050919050565b6000616f5b82616f3e565b9050919050565b616f6b81616f50565b82525050565b6000610140830160008301518482036000860152616f8f8282616ebb565b9150506020830151616fa46020860182616ef4565b5060408301518482036040860152616fbc8282616ebb565b9150506060830151616fd16060860182616f03565b506080830151616fe46080860182616ef4565b5060a0830151616ff760a0860182616f03565b5060c083015161700a60c0860182616f03565b5060e083015161701d60e0860182616f03565b50610100830151617032610100860182616f62565b5061012083015184820361012086015261704c8282616ebb565b9150508091505092915050565b60006170658383616f71565b905092915050565b6000602082019050919050565b600061708582616e40565b61708f8185616e4b565b9350836020820285016170a185616e5c565b8060005b858110156170dd57848403895281516170be8582617059565b94506170c98361706d565b925060208a019950506001810190506170a5565b50829750879550505050505092915050565b60006020820190508181036000830152617109818461707a565b905092915050565b60006020828403121561712757617126616b69565b5b600061713584828501616cda565b91505092915050565b600082825260208201905092915050565b600061715a82616e6c565b617164818561713e565b9350617174818560208601616e88565b61717d81616b7d565b840191505092915050565b61719181616d0f565b82525050565b6171a081616cb9565b82525050565b6171af81616f50565b82525050565b60006101408201905081810360008301526171d0818d61714f565b90506171df602083018c617188565b81810360408301526171f1818b61714f565b9050617200606083018a617197565b61720d6080830189617188565b61721a60a0830188617197565b61722760c0830187617197565b61723460e0830186617197565b6172426101008301856171a6565b818103610120830152617255818461714f565b90509b9a5050505050505050505050565b600080600080608085870312156172805761727f616b69565b5b600085013567ffffffffffffffff81111561729e5761729d616b6e565b5b6172aa87828801616c8b565b945050602085013567ffffffffffffffff8111156172cb576172ca616b6e565b5b6172d787828801616c8b565b93505060406172e887828801616cda565b925050606085013567ffffffffffffffff81111561730957617308616b6e565b5b61731587828801616c8b565b91505092959194509250565b6000819050919050565b61733481617321565b82525050565b600060208201905061734f600083018461732b565b92915050565b61735e81617321565b811461736957600080fd5b50565b60008135905061737b81617355565b92915050565b6000806040838503121561739857617397616b69565b5b60006173a68582860161736c565b92505060206173b785828601616cda565b9150509250929050565b6000602082840312156173d7576173d6616b69565b5b600082013567ffffffffffffffff8111156173f5576173f4616b6e565b5b61740184828501616c8b565b91505092915050565b600060208201905061741f6000830184617188565b92915050565b60006101408301600083015184820360008601526174438282616ebb565b91505060208301516174586020860182616ef4565b50604083015184820360408601526174708282616ebb565b91505060608301516174856060860182616f03565b5060808301516174986080860182616ef4565b5060a08301516174ab60a0860182616f03565b5060c08301516174be60c0860182616f03565b5060e08301516174d160e0860182616f03565b506101008301516174e6610100860182616f62565b506101208301518482036101208601526175008282616ebb565b9150508091505092915050565b600060208201905081810360008301526175278184617425565b905092915050565b60006020820190506175446000830184617197565b92915050565b6000806040838503121561756157617560616b69565b5b600083013567ffffffffffffffff81111561757f5761757e616b6e565b5b61758b85828601616c8b565b925050602083013567ffffffffffffffff8111156175ac576175ab616b6e565b5b6175b885828601616c8b565b9150509250929050565b6175cb81616d0f565b81146175d657600080fd5b50565b6000813590506175e8816175c2565b92915050565b60006020828403121561760457617603616b69565b5b6000617612848285016175d9565b91505092915050565b6000806040838503121561763257617631616b69565b5b6000617640858286016175d9565b925050602061765185828601616cda565b9150509250929050565b7f596f752073686f756c642061747461636820736f6d65204465706f7369740000600082015250565b6000617691601e8361713e565b915061769c8261765b565b602082019050919050565b600060208201905081810360008301526176c081617684565b9050919050565b7f4e487b7100000000000000000000000000000000000000000000000000000000600052602260045260246000fd5b6000600282049050600182168061770e57607f821691505b60208210811415617722576177216176c7565b5b50919050565b7f566f756368657220776974682074686973206964207761732061646465640000600082015250565b600061775e601e8361713e565b915061776982617728565b602082019050919050565b6000602082019050818103600083015261778d81617751565b9050919050565b7f57726f6e67206578706972655f64617465000000000000000000000000000000600082015250565b60006177ca60118361713e565b91506177d582617794565b602082019050919050565b600060208201905081810360008301526177f9816177bd565b9050919050565b60006060820190506178156000830186617188565b6178226020830185617188565b61782f6040830184617197565b949350505050565b60008115159050919050565b61784c81617837565b811461785757600080fd5b50565b60008151905061786981617843565b92915050565b60006020828403121561788557617884616b69565b5b60006178938482850161785a565b91505092915050565b600081905092915050565b7f68747470733a2f2f6170692e73656c7a792e636f6d2f656e2f6170692f73656e60008201527f64456d61696c3f666f726d61743d6a736f6e266170695f6b65793d366a65346860208201527f346b6d6d6d356b716961627a6b7475786a6966736a6f6331787431396b74796660408201527f79316126656d61696c3d00000000000000000000000000000000000000000000606082015250565b600061794f606a8361789c565b915061795a826178a7565b606a82019050919050565b600061797082616e6c565b61797a818561789c565b935061798a818560208601616e88565b80840191505092915050565b60006179a182617942565b91506179ad8284617965565b915081905092915050565b7f2673656e6465725f6e616d653d566f7563686572732673656e6465725f656d6160008201527f696c3d766f756368657273406578616d706c652e636f6d20267375626a65637460208201527f3d596f752b686176652b612b6e65772b555344432b766f7563686572266c697360408201527f745f69643d31313232333326626f64793d596f752b686176652b612b6e65772b60608201527f555344432b766f7563686572214163636573732b69742b7669612b746869732b60808201527f686173683a00000000000000000000000000000000000000000000000000000060a082015250565b6000617aac60a58361789c565b9150617ab7826179b8565b60a582019050919050565b6000617ace8284617965565b9150617ad982617a9f565b915081905092915050565b6000617af08285617965565b9150617afc8284617965565b91508190509392505050565b7f536f75726365206d75737420626520746865206f7261636c65206f662074686560008201527f2072657175657374000000000000000000000000000000000000000000000000602082015250565b6000617b6460288361713e565b9150617b6f82617b08565b604082019050919050565b60006020820190508181036000830152617b9381617b57565b9050919050565b7f566f7563686572206e6f7420666f756e64000000000000000000000000000000600082015250565b6000617bd060118361713e565b9150617bdb82617b9a565b602082019050919050565b60006020820190508181036000830152617bff81617bc3565b9050919050565b7f4e487b7100000000000000000000000000000000000000000000000000000000600052603260045260246000fd5b7f596f7520617265206e6f7420746865206f776e65722e00000000000000000000600082015250565b6000617c6b60168361713e565b9150617c7682617c35565b602082019050919050565b60006020820190508181036000830152617c9a81617c5e565b9050919050565b6000617cac82616f3e565b9050919050565b617cbc81617ca1565b82525050565b6000604082019050617cd76000830185617cb3565b617ce46020830184617197565b9392505050565b7f4d7573742062652070726f706f736564206f776e657200000000000000000000600082015250565b6000617d2160168361713e565b9150617d2c82617ceb565b602082019050919050565b60006020820190508181036000830152617d5081617d14565b9050919050565b600081519050617d6681616cc3565b92915050565b600060208284031215617d8257617d81616b69565b5b6000617d9084828501617d57565b91505092915050565b6000604082019050617dae6000830185617188565b617dbb6020830184617197565b9392505050565b7f556e61626c6520746f207472616e736665720000000000000000000000000000600082015250565b6000617df860128361713e565b9150617e0382617dc2565b602082019050919050565b60006020820190508181036000830152617e2781617deb565b9050919050565b7f4e487b7100000000000000000000000000000000000000000000000000000000600052601160045260246000fd5b6000617e6882616cb9565b9150617e7383616cb9565b925082821015617e8657617e85617e2e565b5b828203905092915050565b7f4e487b7100000000000000000000000000000000000000000000000000000000600052603160045260246000fd5b6000617ecb82616cb9565b91507fffffffffffffffffffffffffffffffffffffffffffffffffffffffffffffffff821415617efe57617efd617e2e565b5b600182019050919050565b600081519050919050565b600081905092915050565b6000617f2a82617f09565b617f348185617f14565b9350617f44818560208601616e88565b80840191505092915050565b6000617f5c8284617f1f565b915081905092915050565b600081519050617f7681617355565b92915050565b600060208284031215617f9257617f91616b69565b5b6000617fa084828501617f67565b91505092915050565b7f48617368206f72204964206973206e6f7420636f727265637421000000000000600082015250565b6000617fdf601a8361713e565b9150617fea82617fa9565b602082019050919050565b6000602082019050818103600083015261800e81617fd2565b9050919050565b7f566f756368657220776173207573656421000000000000000000000000000000600082015250565b600061804b60118361713e565b915061805682618015565b602082019050919050565b6000602082019050818103600083015261807a8161803e565b9050919050565b7f566f756368657220657870697265640000000000000000000000000000000000600082015250565b60006180b7600f8361713e565b91506180c282618081565b602082019050919050565b600060208201905081810360008301526180e6816180aa565b9050919050565b7f4f6e6c792063616c6c61626c65206279206f776e657200000000000000000000600082015250565b600061812360168361713e565b915061812e826180ed565b602082019050919050565b6000602082019050818103600083015261815281618116565b9050919050565b600061816482616cb9565b915061816f83616cb9565b9250817fffffffffffffffffffffffffffffffffffffffffffffffffffffffffffffffff04831182151516156181a8576181a7617e2e565b5b828202905092915050565b60006181be82616cb9565b91506181c983616cb9565b9250827fffffffffffffffffffffffffffffffffffffffffffffffffffffffffffffffff038211156181fe576181fd617e2e565b5b828201905092915050565b600061821482616cb9565b9150600082141561822857618227617e2e565b5b600182039050919050565b7f537472696e67733a20686578206c656e67746820696e73756666696369656e74600082015250565b600061826960208361713e565b915061827482618233565b602082019050919050565b600060208201905081810360008301526182988161825c565b9050919050565b7f43616e6e6f74207472616e7366657220746f2073656c66000000000000000000600082015250565b60006182d560178361713e565b91506182e08261829f565b602082019050919050565b60006020820190508181036000830152618304816182c8565b9050919050565b60007fffffffff0000000000000000000000000000000000000000000000000000000082169050919050565b6183408161830b565b82525050565b600082825260208201905092915050565b600061836282617f09565b61836c8185618346565b935061837c818560208601616e88565b61838581616b7d565b840191505092915050565b6000610100820190506183a6600083018b617188565b6183b3602083018a617197565b6183c0604083018961732b565b6183cd6060830188617188565b6183da6080830187618337565b6183e760a0830186617197565b6183f460c0830185617197565b81810360e08301526184068184618357565b90509998505050505050505050565b7f4e487b7100000000000000000000000000000000000000000000000000000000600052601260045260246000fd5b600061844f82616cb9565b915061845a83616cb9565b92508261846a57618469618415565b5b828206905092915050565b600061848082616f3e565b9050919050565b60008160601b9050919050565b600061849f82618487565b9050919050565b60006184b182618494565b9050919050565b6184c96184c482618475565b6184a6565b82525050565b6000819050919050565b6184ea6184e582616cb9565b6184cf565b82525050565b60006184fc82856184b8565b60148201915061850c82846184d9565b6020820191508190509392505050565b60006060820190506185316000830186617188565b61853e6020830185617197565b81810360408301526185508184618357565b9050949350505050565b7f756e61626c6520746f207472616e73666572416e6443616c6c20746f206f726160008201527f636c650000000000000000000000000000000000000000000000000000000000602082015250565b60006185b660238361713e565b91506185c18261855a565b604082019050919050565b600060208201905081810360008301526185e5816185a9565b9050919050565b60008160011c9050919050565b6000808291508390505b60018511156186435780860481111561861f5761861e617e2e565b5b600185161561862e5780820291505b808102905061863c856185ec565b9450618603565b94509492505050565b60008261865c5760019050618718565b8161866a5760009050618718565b8160018114618680576002811461868a576186b9565b6001915050618718565b60ff84111561869c5761869b617e2e565b5b8360020a9150848211156186b3576186b2617e2e565b5b50618718565b5060208310610133831016604e8410600b84101617156186ee5782820a9050838111156186e9576186e8617e2e565b5b618718565b6186fb84848460016185f9565b9250905081840481111561871257618711617e2e565b5b81810290505b9392505050565b600061872a82616cb9565b915061873583616cb9565b92506187627fffffffffffffffffffffffffffffffffffffffffffffffffffffffffffffffff848461864c565b90509291505056fea26469706673582212209a805e87dd39ba25c72300af9dc817f0719e55c91577016c706d7b99246b61a364736f6c634300080c0033",
  "linkReferences": {},
  "deployedLinkReferences": {}
}